:020000040800F2
:1000000000000C20D9160008FD020008FF020008BD
:10001000010300080303000805030008291700086E
:1000200000000000000000000000000007030008BE
:1000300009030008000000000B0300080D0300087E
:100040002917000829170008291700082917000890
:100050002917000829170008291700082917000880
:100060002917000829170008291700082917000870
:100070002917000829170008291700082917000860
:100080002917000829170008291700082917000850
:100090002917000829170008291700082917000840
:1000A0002917000829170008291700082917000830
:1000B0002917000829170008291700082917000820
:1000C0002917000829170008291700082917000810
:1000D0002917000829170008291700082917000800
:1000E00029170008291700082917000829170008F0
:1000F00029170008291700082917000829170008E0
:1001000029170008291700082917000829170008CF
:1001100029170008291700082917000829170008BF
:1001200029170008291700082917000829170008AF
:10013000291700082917000829170008291700089F
:10014000291700082917000829170008291700088F
:10015000291700082917000829170008291700087F
:10016000291700082917000829170008291700086F
:10017000291700082917000829170008291700085F
:10018000291700082917000829170008291700084F
:10019000291700082917000829170008291700083F
:1001A000291700082917000829170008291700082F
:1001B000291700082917000829170008291700081F
:1001C000291700082917000829170008291700080F
:1001D00029170008291700082917000829170008FF
:1001E00029170008291700082917000829170008EF
:1001F00029170008291700082917000829170008DF
:1002000029170008291700082917000829170008CE
:1002100029170008291700082917000829170008BE
:1002200029170008291700082917000829170008AE
:08023000291700082917000836
:1002380010B5054C237833B9044B13B1044800E0DA
:1002480000BF0123237010BD100000200000000033
:100258008417000808B5034B1BB10349034800E0A5
:1002680000BF08BD0000000014000020841700082B
:1002780008B500F067F908BD72B6FEE700B59FB093
:100288006022002106A801F071FA00200090019078
:10029800029003900490059000F0FCF8E0B9102358
:1002A800069301220D920E934FF080430F93002383
:1002B800149306A800F09AFC80B91F23009300212C
:1002C80001910291039104910591684600F0F4FAB6
:1002D80030B91FB05DF804FBFFF7CEFFFFF7CCFF86
:1002E800FFF7CAFF08B500F08BF9FFF7C7FFFFF764
:1002F800BFFFFEE7FEE7FEE7FEE7FEE7FEE7704723
:100308007047704708B500F0A5F908BD82B0074BE3
:10031800D3F8942042F00402C3F89420D3F8943020
:1003280003F004030193019B02B07047000C0246DE
:10033800074AD36823F4E0631B041B0C000200F493
:10034800E060034343F0BF6343F40033D360704776
:1003580000ED00E000B5194BDB68C3F30223C3F1DD
:10036800070CBCF1040F28BF4FF0040C03F1040E76
:10037800BEF1060F18D9033B4FF0FF3E0EFA0CFCF6
:1003880021EA0C0199400EFA03F322EA0303194308
:1003980000280BDB0901C9B200F1604000F561409B
:1003A80080F800135DF804FB0023E5E700F00F0078
:1003B8000901C9B2024B1954F4E700BF00ED00E08F
:1003C80014ED00E00138B0F1807F09D24FF0E0234E
:1003D8005861002098611A6942F003021A61704757
:1003E80001207047042838D8DFE800F00A182837B9
:1003F80003004FF0E022136943F0040313617047D0
:100408004FF0E022136923F004031361134AD2F872
:10041800E03023F44003C2F8E03070474FF0E022A8
:10042800136923F0040313610C4AD2F8E03023F473
:10043800400343F48003C2F8E03070474FF0E022F5
:10044800136923F004031361044AD2F8E03023F45B
:10045800400343F40003C2F8E0307047000C024642
:100468004FF0E023186910F004000CD1084BD3F8C2
:10047800E03003F44003B3F5800F06D0B3F5000F66
:1004880004D102207047042070470120704700BF44
:10049800000C0246244BDB6B03F44033834219D033
:1004A800B0F5803F20D9204AD36823F4E0231843CD
:1004B80040F48020D0601D4B1B681D4AA2FB03132B
:1004C8009B09322101FB03F3A2FB03239B090133A0
:1004D8001A4611E0B0F5803F04D9134AD36843F4B3
:1004E8008023D360002070470F4AD36823F4E023A9
:1004F8001843D060DFE7013A0B49C96811F4004F8F
:1005080001D1002AF7D11AB9134653B10020704718
:10051800054AD26B12F4004FF7D1002BF5D0013BFE
:10052800F6E70320704700BF0008024608000020D5
:10053800D34D6210024BD86B00F44030704700BFB7
:1005480000080246024AD36A43F00103D3627047A7
:100558000008024638B5274B1A78002A47D00546C6
:100568004FF0E0231C6914F004040DD0224B1B68E3
:100578004FF47A74B4FBF2F2B3FBF2F42046FFF7BF
:1005880021FF50B3012033E0FFF76AFF01280ED0A6
:10059800022817D00028F1D1174B1B68154A12788A
:1005A8004FF4FA54B4FBF2F4B3FBF4F4E6E7114B5E
:1005B8001B784FF47A74B4FBF3F44FF4FA43B3FBAB
:1005C800F4F4DBE70B4B1B784FF47A74B4FBF3F4C9
:1005D8004FF40043B3FBF4F4D0E7002229464FF070
:1005E800FF30FFF7B7FE054B1D60002000E001203B
:1005F80038BD00BF000000200800002004000020D3
:1006080010B5104A136843F4807313600320FFF792
:100618008FFE00F093F80C4B1B6A03F00F030B4A94
:10062800D35CD8400A4B18600420FFF7DBFE0F208C
:10063800FFF790FF10B10124204610BD0446FFF7D4
:1006480065FEF9E700200240000C0246A0170008EA
:1006580008000020034B1B78034A11680B44136001
:10066800704700BF000000202C000020014B1868D4
:10067800704700BF2C00002030B583B004462D4BD6
:10068800D3F8943013F0040F0FD0FFF753FFB0F5F1
:10069800403F20D0B0F5003F1DD0B4F1805F2CD290
:1006A800B0F5803F40D0012025E0224DD5F89430A8
:1006B80043F00403C5F89430D5F8943003F00403EC
:1006C8000193019BFFF736FFD5F8943023F004031C
:1006D800C5F89430DBE7B4F1805F23D20120164AD5
:1006E800136823F00F0303431360136803F00F0329
:1006F80083421DD1002003B030BDB4F1005F05D99D
:10070800A0B9B4F1405FEAD80120E8E7B4F1805F0E
:1007180001D00120E3E7B0F5803F01D00220DEE7F9
:100728000120DCE70020DAE70320D8E70020D6E73D
:100738000120E0E7000C02460020024010B4594AAC
:10074800D369926A13F00C0310D002F003020C2B49
:100758000AD0544AD26902F00C02042A20D0082B8D
:1007680021D00020044610E0012AF2D14D4A9268B7
:1007780012F4000F0ED14B4AD2F8F420C2F3033220
:10078800494951F822404BB100200C2B0ED05DF89E
:10079800044B7047434A9268120FF1E72046F4E78A
:1007A80042480024F1E741480024EEE73D48816AC9
:1007B80001F00301836AC3F30323013307EE103A00
:1007C800836AC3F3001C836BC3F3CC030CFB03F3F2
:1007D80007EE903AF8EE677A02291ED0032946D030
:1007E80006EE904AF8EE666AB8EE477A86EE876AB1
:1007F8002C4B5B6BC3F3080306EE903AF8EE666A7F
:100808009FED2B7A67EE877A76EEA77AF7EE006A85
:1008180077EEA66A66EE266A19E0B8EE477A9FED8B
:10082800256AC6EE076A1F4B5B6BC3F3080307EE26
:10083800103AB8EE477A9FED1E6A67EE867A77EE31
:10084800277AB7EE007A77EE877A66EEA76A154BB5
:100858005B6BC3F30663013307EE903AB8EE677A31
:10086800C6EE877AFCEEE77A17EE900A8FE7B8EEC5
:10087800477A9FED106AC6EE076A0A4B5B6BC3F3B3
:10088800080307EE103AB8EE477A9FED096A67EE5B
:10089800867A77EE277AB7EE007A77EE877A66EE71
:1008A800A76AD4E7000C0246B01700080024F40039
:1008B800000000390024744B002800F07181F0B565
:1008C80083B00D4604467F4B1B6803F00F038B4231
:1008D8000BD27C4A136823F00F030B431360136891
:1008E80003F00F038B4240F05D81236813F0100F73
:1008F8000CD06269744B5B6A03F070039A4205D9A5
:1009080071494B6A23F070031A434A62236813F053
:10091800080F0ED022696C4B1B6A1B0903F0700389
:100928009A4206D968490B6A23F4E06343EA021342
:100938000B62236813F0040F0CD0E268624B1B6A49
:1009480003F070039A4205D95F490B6A23F07003DC
:100958001A430A62236813F0020F0CD0A2685A4B9C
:100968001B6A03F00F039A4205D957490B6A23F013
:100978000F031A430A62236813F0010F00F0A880DE
:100988006368032B0AD0022B61D0002B66D14E4B33
:100998001B6813F0040F26D10120FFE04A4BD3F85F
:1009A800943013F0040F0ED1474BD3F8942042F043
:1009B8000402C3F89420D3F8943003F0040301939D
:1009C800019B012700E00027FFF750FE06463F4B3A
:1009D800DB6813F4802F26D18FBB3B4B1B6813F0C9
:1009E800007F00F0E180384AD36923F0030361688F
:1009F8000B43D361FFF73AFE06466368032B34D0F6
:100A0800022B41D0002B4ED02F4BDB6903F00C0397
:100A1800042B5DD0FFF72AFE801B41F288339842F1
:100A2800F2D90320BAE0294BDB6813F4804FD3D105
:100A3800FFF71CFE801B0228F5D90320AEE0224AEE
:100A4800D2F8943023F00403C2F89430C5E71E4B63
:100A58001B6813F4003FC6D101209FE01A4B1B68A6
:100A680013F4806FBFD1012098E0174BDB6903F0C6
:100A78000C030C2B2CD0FFF7F9FD831B41F28832B5
:100A88009342F2D9032089E00F4BDB6903F00C0392
:100A9800082B1DD0FFF7EAFD801B41F288339842EE
:100AA800F2D903207AE0084BDB6913F00C0F0FD062
:100AB800FFF7DCFD801B41F288339842F3D903200D
:100AC8006CE000BF00200240000C0246000802460D
:100AD800236813F0020F0CD0A268354B1B6A03F091
:100AE8000F039A4205D232490B6A23F00F031A43C7
:100AF8000A62304B1B6803F00F03AB420AD92D4A38
:100B0800136823F00F032B431360136803F00F03DC
:100B1800AB424BD1236813F0040F0CD0E268244B8E
:100B28001B6A03F070039A4205D221490B6A23F02D
:100B380070031A430A62236813F0080F0ED0226963
:100B48001B4B1B6A1B0903F070039A4206D2184913
:100B58000B6A23F4E06343EA02130B62236813F081
:100B6800100F0CD06269124B5B6A03F070039A4253
:100B780005D20F494B6A23F070031A434A62FFF704
:100B8800DDFD0B4B1B6A03F00F030B4AD35CD84007
:100B98000A4B18600A4B1868FFF7DCFC03B0F0BD7D
:100BA800012070470120F9E70120F7E70120F5E768
:100BB800000C024600200240A01700080800002090
:100BC8000400002008B5FFF7B9FD054B1B6A03F0C8
:100BD8000F03044AD35CD840034B186008BD00BF1C
:100BE800000C0246A017000808000020002800F0AA
:100BF8002A85F0B585B004469C4BDD6905F00C05E7
:100C08009E6A06F00306036813F0100F00F0948044
:100C1800EDB10C2D19D0E369002B00F01181934A36
:100C2800136843F001031360FFF720FD07468F4B5D
:100C38001B6813F0040F40F0CD80FFF717FDC01BB1
:100C48000228F4D9032000F001BD012EE3D1E369A5
:100C5800002B00F0FA84606A844B9B6813F4000F41
:100C68001CD0824B9B6803F07043984244D9E5B18D
:100C78007E4A936843F400039360936823F07043BB
:100C8800616A0B439360636AB3F1404F14D3D3682E
:100C980023F01F03216A0B43D36044E0734BD3F85E
:100CA800F4301B0403F07043DFE7FFF7E5FC00288E
:100CB800DED0012000F0CABC002B0BDBB3F1804F63
:100CC80011D36A4AD36823F4F843216A43EA81239B
:100CD800D36028E0654AD36823F47873216A43EA2D
:100CE8004113D3601FE0614AD36823F47823216A53
:100CF80043EAC133D36016E05C4A936843F40003C7
:100D08009360936823F07043616A0B439360636A4E
:100D1800B3F1404F36D3D36823F01F03216A0B4346
:100D2800D360002D4ED0FFF74DFF514B1868FFF7E9
:100D380011FC002840F08A84236813F0010F00F0AA
:100D4800A080082D00F099800C2D00F09380636836
:100D5800B3F5803F00F0B680B3F5A02F00F0C8804F
:100D6800B3F5A81F00F0D280404B1A6822F48032F5
:100D78001A601A6822F480221A601A6822F4801213
:100D88001A60A4E0002B0BDBB3F1804F11D3374A74
:100D9800D36823F4F843216A43EA8123D360C0E788
:100DA800324AD36823F47873216A43EA4113D36043
:100DB800B7E72E4AD36823F47823216A43EAC1337C
:100DC800D360AEE7606AFFF757FC0028ABD001207C
:100DD80000F03CBC254A936843F400039360936891
:100DE80023F07043616A0B439360636AB3F1404F29
:100DF80006D3D36823F01F03216A0B43D3609BE714
:100E0800002B0BDBB3F1804F11D3184AD36823F4BE
:100E1800F843216A43EA8123D3608DE7134AD368F4
:100E280023F47873216A43EA4113D36084E70F4AB5
:100E3800D36823F47823216A43EAC133D3607BE77C
:100E48000A4A136823F001031360FFF70FFC0746F3
:100E5800064B1B6813F0040F3FF46EAFFFF706FC58
:100E6800C01B0228F4D90320F0E300BF000C02469F
:100E780004000020032E7FF46AAF6368002B00F0A3
:100E8800E783236813F0020F6BD0042D5DD00C2D7F
:100E980059D0E368002B00F0BF80AA4A136843F4D6
:100EA80080731360FFF7E2FB0546A64B1B6813F43B
:100EB800806F40F0A880FFF7D9FB401B0228F4D9C7
:100EC8000320C3E39F4A136843F4803313606368C5
:100ED80053B3FFF7CBFB07469A4B1B6813F4003F4D
:100EE800CFD1FFF7C3FBC01B6428F5D90320ADE3BE
:100EF800944B1A6842F480221A601A6822F480120D
:100F08001A601A6842F480321A60E0E78D4B1A685A
:100F180042F480221A601A6842F480121A601A6831
:100F280042F480321A60D2E7FFF7A0FB0746854BF0
:100F38001B6813F4003FA4D0FFF798FBC01B64287C
:100F4800F5D9032082E3022EA3D1E368002B00F039
:100F580081837C4A136923F4F813216943EA014326
:100F68001361236813F0080F00F0AF80754BD3F8B6
:100F7800943013F0040F63D1724BD3F8942042F0ED
:100F88000402C3F89420D3F8943003F004030193C7
:100F9800019B01256C4B9B6A13F0010F52D06369CA
:100FA800002B7AD0674BD3F8F030A16903F0805258
:100FB800914211D003F04062B2F1006F00F04C830F
:100FC80013F0806F52D15F4AD2F8F03023F080538B
:100FD800A1690B43C2F8F0305A4AD2F8F03043F016
:100FE8008063C2F8F030FFF741FB0646554BD3F853
:100FF800F03013F0006F67D1FFF738FB801B05282E
:10100800F4D9032022E34F4A136923F4F813216922
:1010180043EA01431361A4E74A4A136823F480733F
:101028001360FFF723FB0546464B1B6813F4806FDC
:1010380097D0FFF71BFB401B0228F5D9032005E3D7
:101048000025A7E7404A936A43F001039362FFF73C
:101058000DFB06463C4B9B6A13F0010F9FD1FFF72F
:1010680005FB801B0228F5D90320EFE2354AD2F8A8
:10107800F03023F0A053C2F8F030FFF7F7FA064635
:10108800304BD3F8F03013F0006F9CD0FFF7EEFA36
:10109800801B0528F4D90320D8E22A4AD2F8F03078
:1010A80023F0A053C2F8F030FFF7E0FA0646254BCC
:1010B800D3F8F03013F0006F06D0FFF7D7FA801B93
:1010C8000528F4D90320C1E295BB236813F0040F67
:1010D80000F0D9801B4BD3F8943013F0040F2FD1B4
:1010E800184BD3F8942042F00402C3F89420D3F8A4
:1010F800943003F004030293029B0125124B9B6A70
:1011080013F0010F22D0A36813F0010F3AD013F0A7
:10111800040F2FD00B4BD3F8F02042F00402C3F891
:10112800F020D3F8F02042F00102C3F8F02036E0B6
:10113800044AD2F8943023F00403C2F89430C4E788
:101148000025DBE7000C024600080246A84A936A1D
:1011580043F001039362FFF789FA0646A44B9B6AA2
:1011680013F0010FCFD1FFF781FA801B0228F5D9C0
:1011780003206BE29F4AD2F8F03043F00103C2F833
:10118800F0300CE09B4BD3F8F02022F00102C3F8BA
:10119800F020D3F8F02022F00402C3F8F020A3686E
:1011A800002B41D0FFF762FA0646924BD3F8F03095
:1011B80013F0020F08D1FFF759FA801B41F2883368
:1011C8009842F2D9032041E2A36813F0800F15D0AA
:1011D800884AD2F8F03043F08003C2F8F030854BEB
:1011E800D3F8F03013F4006F4CD1FFF73FFA801BAF
:1011F80041F288339842F2D9032027E27D4AD2F897
:10120800F03023F08003C2F8F0307A4BD3F8F03096
:1012180013F4006F36D0FFF729FA801B41F28833A8
:101228009842F2D9032011E2FFF720FA0646714BE3
:10123800D3F8F03013F0020F08D0FFF717FA801B2D
:1012480041F288339842F2D90320FFE1694BD3F881
:10125800F03013F0800F15D0664AD2F8F03023F042
:101268008003C2F8F030634BD3F8F03013F4006F0A
:1012780008D0FFF7FBF9801B41F288339842F2D976
:101288000320E3E1CDB9236813F0200F31D0E36ADE
:10129800DBB1584A136843F480531360FFF7E6F94B
:1012A8000546544B1B6813F4005F22D1FFF7DEF9A3
:1012B800401B0228F5D90320C8E14E4AD2F89430E1
:1012C80023F00403C2F89430DDE74A4A136823F494
:1012D80080531360FFF7CAF90546464B1B6813F4A1
:1012E800005F06D0FFF7C2F9401B0228F5D903209A
:1012F800ACE1236813F0800F29D0236B9BB13D4AE2
:10130800136843F480431360FFF7B0F90546394B7F
:101318001B6813F4004F1AD1FFF7A8F9401B0228E5
:10132800F5D9032092E1334A136823F4804313600C
:10133800FFF79CF905462F4B1B6813F4004F06D0A6
:10134800FFF794F9401B0228F5D903207EE12368B2
:1013580013F0400F64D0636B002B4DD0254A93687F
:1013680043F400039360936823F07063A16A0B430E
:101378009360636AB3F1404F19D3D36823F01F0316
:10138800216A0B43D3601B4A136843F010031360B0
:10139800FFF76CF90546174B1B6813F0200F3FD178
:1013A800FFF764F9401B0228F5D903204EE1002B12
:1013B8000BDBB3F1804F11D30E4AD36823F4F84303
:1013C800216A43EA8123D360DDE70A4AD36823F41C
:1013D8007873216A43EA4113D360D4E7054AD36896
:1013E80023F47823216A43EAC133D360CBE700BFF3
:1013F80000080246000C0246A14A136823F01003B5
:101408001360FFF733F905469D4B1B6813F0200F57
:1014180006D0FFF72BF9401B0228F5D9032015E168
:10142800A36B002B00F01A81954AD26902F00C02D6
:101438000C2A00F0BC80022B14D0914A136823F0C8
:1014480080731360FFF712F904468D4B1B6813F085
:10145800007F00F0A380FFF709F9001B0228F4D9E8
:101468000320F3E0864A136823F080731360FFF7C4
:10147800FDF80546824B1B6813F0007F06D0FFF786
:10148800F5F8401B0228F5D90320DFE07C4BD3F8A0
:10149800943013F0040F68D1794BD3F8942042F0BC
:1014A8000402C3F89420D3F8943003F004030393A0
:1014B800039B0125734BDB6813F4802F57D100265B
:1014C800704AD36823F48023D3606D4B9A6A22F460
:1014D8007F4222F00302E16B206C013841EA0021CF
:1014E800606C01430A439A625A6B67481040A26CC9
:1014F800013AC2F30802E16C0139490289B20A4390
:10150800216D0139090401F4FE010A43616D0139B5
:10151800090601F0FE410A4302435A639A6A22F01F
:1015280010029A62E26DD2009A639A6A42F010023F
:101538009A629A6A22F00C02A16D0A439A62C6B9AD
:10154800EDB94F4A136843F080731360FFF78EF8C4
:1015580004464B4B1B6813F0007F18D1FFF786F841
:10156800001B0228F5D9032070E00025A2E7012618
:10157800A6E7444AD36843F48023D360E0E7404AAF
:10158800D2F8943023F00403C2F89430D9E73C4AE7
:10159800936A43F480239362002057E0384A936AA1
:1015A80023F4E02323F00303936200204EE0344A3F
:1015B800916A506B012B53D001F00303E26B934205
:1015C80050D1C1F30322236C013B9A424CD101F460
:1015D8007041636C994249D1C0F30802A36C013B86
:1015E8009A4245D1C0F34622E36C013B9A4241D16D
:1015F800C0F30642236D013B9A423DD1C0F3066019
:10160800636D013B984239D11D4B9B6BC3F3CC03EF
:10161800E26D934201D1002018E0194A936A23F041
:1016280010039362FFF722F80546FFF71FF8A84258
:10163800FBD0E26DD200124B9A639A6A42F0100214
:101648009A62002002E001207047012005B0F0BD39
:101658000120FBE70120F9E70120F7E70020F5E783
:101668000120F3E70120F1E70120EFE70120EDE792
:101678000120EBE70120E9E70120E7E70120E5E7A2
:10168800000C024600080246000080800E48D0F890
:10169800883043F47003C0F888300C4B01221A607C
:1016A8000022DA611A625A62196821F0A85121F4FD
:1016B800102119609A62196821F4802119601A654D
:1016C8004FF000638360704700ED00E0000C0246B5
:1016D800DFF834D0FFF7DAFF002103E00B4B5B584B
:1016E800435004310A480B4B42189A42F6D30A4A2F
:1016F80002E0002342F8043B084B9A42F9D300F079
:1017080011F8FEF7EFFDFEE700000C2000180008B6
:1017180000000020100000201000002030000020F1
:10172800FEE7000070B50D4D00260D4C641BA4109B
:10173800A64209D10B4D00260B4C00F01FF8641B84
:10174800A410A64205D170BD55F8043B0136984750
:10175800EEE755F8043B01369847F2E7F017000822
:10176800F0170008F0170008F417000802440346B1
:10177800934200D1704703F8011BF9E7F8B500BFA1
:10178800F8BC08BC9E467047F8B500BFF8BC08BC5A
:081798009E46704700000000AE
:1017A0000000000000000000010203040607080911
:1017B000006CDC0200366E010024F400001BB70050
:1017C00000093D0080841E0060E3160040420F00C7
:1017D00000E02E000070170000A00F0000B80B0002
:1017E000801A0600400D0300F0490200A0860100A7
:0817F0005D020008000000008A
:0817F8003902000800000000A6
:10180000010000001000000000093D000000000081
:04000005080016D900
:00000001FF
